:020000040800F2
:1000000068040020010100083B140008ED0E000800
:10001000391400087F0100080B15000800000000DB
:10002000000000000000000000000000B5140008FF
:1000300081010008000000003D140008B71400080A
:100040001B0100081B0100081B0100081B01000820
:100050001B0100081B0100081B0100081B01000810
:100060001B0100081B0100081B0100081B01000800
:100070001B0100081B0100081B0100081B010008F0
:100080001B0100081B0100081B0100081B010008E0
:100090001B0100081B0100081B0100081B010008D0
:1000A0001B0100081B0100081B0100081B010008C0
:1000B0001B0100081B010008000000001B010008D4
:1000C0001B01000800000000000000001B010008E8
:1000D000000000001B0100081B01000800000000D8
:1000E0001B0100081B0100081B010008DFF80CD0F1
:1000F00000F02AF8004800474D1500086804002069
:100100000648804706480047FEE7FEE7FEE7FEE7B1
:10011000FEE7FEE7FEE7FEE7FEE7FEE7091500085B
:10012000ED000008D2B201E000F8012B491EFBD21D
:1001300070470022F6E710B513460A4604461946F2
:10014000FFF7F0FF204610BD064C074D06E0E068C3
:1001500040F0010394E8070098471034AC42F6D30E
:10016000FFF7C8FFE41500080416000800F00F01AF
:10017000000900EB800001EB4000C0B27047FEE7D1
:100180007047000070B5044600F0F4F80546601CA6
:1001900002D004480078044400F0ECF8401BA04270
:1001A000FAD370BD000000202DE9F84FDFF89C91D4
:1001B000002409F1040A0AF1040B23460F270BF16E
:1001C000040EBBE00125A5402A40AA4276D1DFF803
:1001D00080C14E68A6EB0C0866452BD00DDC032EC3
:1001E00034D005DC36B3012E19D0022E2FD11BE0FE
:1001F000112E16D0122E2AD119E0B8F5881F19D069
:1002000006DCB8F5803F15D0B8F5801F1FD111E08E
:10021000B8F5001F0ED0B8F5041F18D10AE0CB685E
:1002200015E0CB681B1D12E0CB6808330FE0CB68EC
:100230000C330CE08B682BB1012B4FF0080303D07B
:10024000456104E0042302E0056100E00023FF2A89
:1002500001D8064601E000F104064FEA840501D901
:10026000A5F12005D6F8008007FA05FC28EA0C085D
:1002700003FA05F548EA0508C6F800804D68ED0068
:100280005BD5344DAE6946F00106AE61AD6924F030
:10029000030605F0010500952F4D06EB050CDCF873
:1002A0000850A607360F07FA06F825EA0805DFF812
:1002B000AC80404503D14FF0000810E03DE0DFF88E
:1002C000A080404502D14FF0010808E0DFF894809B
:1002D000404502D14FF0020801E04FF0030808FA50
:1002E00006F848EA0508CCF808804D68D9F800609F
:1002F000ED034D4601D5164300E096432E604D6850
:10030000DAF80060AD03554601D5164300E0964388
:100310002E604D68DBF80060ED025D4601D51643A6
:1003200000E096432E604D68DEF80060AD02754631
:1003300001D5164300E096432E60641C0A6832FA29
:1003400004F57FF43FAFBDE8F88F000000040140E2
:1003500000001110001002400000014000080140A0
:10036000000C0140001001400AB10161704709040E
:10037000FBE7000001488068704700000000002093
:1003800070B5040025D094F83D00002520B984F80C
:100390003C50204600F070FA242084F83D0020688C
:1003A000016821F0010101602068016841F4004109
:1003B00001602068016821F40041016000F0ACFB9D
:1003C0004D4A6168914201D84C4900E04C4988424D
:1003D00001D2012070BD4B492368B0FBF1F15E688A
:1003E00026F03F060E435E606368934206D94FF4E1
:1003F000967359434FF47A73B1FBF3F12368491CA8
:100400001E6A26F03F06314319626168914210D896
:100410004900401EB0FBF1F2521CC2F30B02042A49
:1004200001D2042022E0B0FBF1F0401CC0F30B002D
:100430001CE0A268F2B301EBC10303EB0116431EFB
:10044000B3FBF6F35B1C43F480431B0549D092B326
:1004500001EBC10202EB0111401EB0FBF1F0401CA8
:10046000C0F30B0040F4804040F400402168CA69AA
:100470004CF6FF739A431043C861D4E90710014357
:100480002068026822F0C00211430160D4E9030130
:1004900001432068826848F2FF339A431143816028
:1004A000D4E9050108432168CA6822F0FF0210431D
:1004B000C86001E00EE016E02068016841F001012B
:1004C00001602564202084F83D00256384F83E50B7
:1004D000002070BD01EB4106431EB3FBF6F35B1C2D
:1004E000B3E70120C2E701EB4101401EB0FBF1F090
:1004F000401CC0F30B00B7E7A086010080841E00FB
:1005000000093D0040420F002DE9F84F0025DDF8BD
:100510002890984617468A4604460095FFF72AFF1A
:10052000064694F83D0020287AD1192301228349F8
:100530002046009600F0DCFD0028F5D194F83C0040
:1005400001286DD0012084F83C0020680168C907AB
:1005500003D1016841F0010101602068016821F4C4
:1005600000610160222084F83D00102084F83E00E4
:1005700025646762A4F82A80608D20857048E06257
:1005800033464A465146204600F0C8FC00287DD13B
:10059000208DDFF8B081202768B1012814D002280F
:1005A000206801681ED041F48061016020684169C3
:1005B00080690090B5E02068416981690091016817
:1005C00041F400710160ACE02068016821F48061B1
:1005D000016072B62068416981690091016841F447
:1005E00000710AE041F40061016072B6206841695F
:1005F00081690091016821F48061016062B690E038
:10060000032868D801280CD002284B464FF000027E
:100610004146204600960FD000F06AFDB0BB10E0C6
:100620008AE032464946204600F0E1FD70BB206872
:100630000069616A08706BE000F05AFD30BB72B669
:1006400034E02068016821F48061016072B620689E
:100650000069616A0870606A401C6062208D401EFB
:100660002085608D401E6085374846F2A8110068DD
:10067000B0FBF1F0C0EBC00000EB80000090401E2A
:10068000009008D020684069C04300E029E040079E
:100690000CD50098F3E744F8305F6773A5732069C1
:1006A00040F02000206162B625731AE020680168DE
:1006B00041F40071016020680069616A0870606A35
:1006C000401C6062218D491E2185618D491E618516
:1006D00062B621681AE032464946204600F087FD9E
:1006E00010B10120BDE8F88F20680069616A0870C8
:1006F000606A401C6062218D491E2185618D491E02
:10070000618521684A69D24352070AD40969017098
:10071000606A401C6062208D401E2085608D401EF6
:100720006085208D00287FF46BAF84F83D7084F8DD
:100730003E5084F83C50D5E70220D3E70200100079
:100740000000FFFF040001000C0000202DE9F84F1D
:100750001F4690468A460446DDF82890FFF70AFEB9
:10076000054694F83D0020287FD1192301224049F5
:100770002046009500F0BCFC002876D194F83C009F
:10078000012872D0012084F83C0020680168C90764
:1007900003D1016841F0010101602068016821F482
:1007A00000610160212084F83D00102084F83E00A3
:1007B00000262664C4F824806785608D20852D4836
:1007C000E0622B464A465146204600F01DFC90B997
:1007D000206841698069009036E02A4649462046F3
:1007E00000F038FD50B1206C042804D12068016865
:1007F00041F4007101600120BDE8F88F606A216852
:1008000000780861606A401C6062618D491E6185E4
:10081000218D491E89B2218522685369DB435B071C
:100820000BD451B100781061606A401C6062608D29
:10083000401E6085208D401E20852A464946204660
:1008400000F030FC0028CED1208D0028C5D154F80E
:100850003D0B016841F400710160202004F81E097D
:10086000E67766770020C7E7FFE70220C4E70000CD
:10087000020010000000FFFF10B586B000210091BB
:100880000191029103910068104988421CD1104CDB
:10089000A06940F00800A061A069694600F0080066
:1008A0000490C020009012200190012002900320AB
:1008B00003900848FFF778FCE06940F40010E0611D
:1008C000E06900F40010049006B010BD0054004030
:1008D00000100240000C0140024881680278114477
:1008E0008160704700000020074810B5016841F0A2
:1008F00010010160032000F067F8002000F006F806
:1009000000F024F8002010BD0020024070B50D4D0D
:1009100004464FF47A712878B1FBF0F00A4909686F
:10092000B1FBF0F000F0CEFA48B9102C07D200224B
:100930002146501E00F028F800206C6070BD012098
:1009400070BD0000000000200C0000200C4808B51D
:10095000816941F001018161816901F0010100912A
:10096000C16941F08051C161C06900F080500090C0
:100970000448416821F0E06141F00071416008BD28
:100980000010024000000140F0B40E4B1B680C4602
:10099000C3F30223C3F10705042D00D90425191D53
:1009A000072901D2002300E0DB1E012606FA05F12B
:1009B000491E214099409E40761E16403143F0BCAE
:1009C00000F0A4BD0CED00E0064900F00702086845
:1009D0004FF6FF03184040EA0220034A1043086024
:1009E000704700000CED00E00000FA052DE9F0472B
:1009F0000F46050061D0434E306800F00700B84252
:100A000009D2306820F0070038433060306800F0C9
:100A10000700B84251D128683B4C810712D54007E6
:100A200003D5606840F4E06060602878000703D573
:100A3000606840F4605060606068A96820F0F00071
:100A4000084360602878C00728D06868012810D063
:100A50002168022810D0890700292EDA616821F068
:100A6000030101436160FFF785FC804641F288394C
:100A70000DE021688903EFE78901EDE7FFF77AFCD4
:100A8000A0EB0801494502D90320BDE8F087606862
:100A9000696800F00C00B0EB810FEFD1306800F016
:100AA0000700B8420BD9306820F0070038433060A7
:100AB000306800F00700B84201D00120E5E728784F
:100AC000400705D56068E96820F4E060084360608D
:100AD0002878000706D56068296920F4605040EA4C
:100AE000C100606000F028F86168084AC1F3031192
:100AF000515CC8400649086006480068FFF706FFD9
:100B00000020C2E70020024000100240CC1500087F
:100B10000C000020040000200448054900684968D2
:100B2000044AC1F30221515CC84070470C00002008
:100B300000100240DC15000812A185B00FC98DE835
:100B40000F0014A0144A006804905168134801F083
:100B50000C03042B10D0082B0ED1C1F38343C9031F
:100B60001DF803000AD5516804AAC1F34041515C45
:100B70000A4A5043B0FBF1F005B0704708494843BA
:100B8000FAE7000002030405060708090A0B0C0D2A
:100B90000E0F1010010200000010024000127A0037
:100BA00000093D002DE9F84F040070D02078C04DB9
:100BB000C00749D06868C0F38100012807D0686881
:100BC000C0F38100022809D16868C00306D52868EF
:100BD000800339D560680028E7D035E06068B0F55B
:100BE000803F0BD010B1B0F5A02F11D0286820F4B1
:100BF00080302860286820F4802002E0286840F4D3
:100C000080302860606890B1FFF7B4FB06460AE0C8
:100C1000286840F480202860F0E700BFFFF7AAFBB7
:100C2000801B642873D828688003F7D50CE0FFF791
:100C3000A1FB064605E000BFFFF79CFB801B642874
:100C4000F0D828688003F7D420789A4E80074FF0B8
:100C500001094FF0000839D5686810F00C0F07D073
:100C60006868C0F38100022809D16868C00306D40F
:100C70002868800714D52069012808D110E0206970
:100C8000B0B1C6F80090FFF775FB074605E00AE132
:100C9000FFF770FBC01B0228C4D828688007F7D56F
:100CA0002868616920F0F80040EAC10028600DE082
:100CB000C6F80080FFF75EFB074604E0FFF75AFB2B
:100CC000C01B022823D828688007F7D420780007A3
:100CD0002CD57948A169D9B1C0F80090FFF74AFB3B
:100CE000074604E0FFF746FBC01B02280FD8686ADE
:100CF0008007F7D571484FF4FA510068B0FBF1F066
:100D0000009000BF0098411E0091FAD20EE080E0F2
:100D1000C0F80080FFF72EFB074604E0FFF72AFB30
:100D2000C01B022875D8686A8007F7D4207840076E
:100D300060D5E8690027C00008D4E86940F0805019
:100D4000E861E869012700F0805000905C48016884
:100D5000C90513D40168834641F480710160FFF72F
:100D600009FB824606E000BFFFF704FBA0EB0A0088
:100D700064284ED8DBF80000C005F5D5E0680128EE
:100D80000AD008B1052813D0286A20F00100286293
:100D9000286A20F0040002E0286A40F0010028627E
:100DA000E06841F2883B98B1FFF7E4FA82460BE035
:100DB000286A40F004002862EEE700BFFFF7DAFA85
:100DC000A0EB0A0159455AD8286A8007F6D50CE0ED
:100DD000FFF7D0FA824605E0FFF7CCFAA0EB0A0154
:100DE00059454CD8286A8007F6D41FB1E86920F02D
:100DF0008050E861E06988B36968C1F38101022924
:100E000044D00228C6F8608004D0FFF7B3FA044645
:100E100038E034E0FFF7AEFA074604E0FFF7AAFA3D
:100E2000C01B02282BD828688001F7D4206AB0F5AF
:100E3000803F05D16868A16820F4003008436860ED
:100E4000D4E908010843696821F474110843686013
:100E5000C6F86090FFF78EFA044606E025E000BF72
:100E6000FFF788FA001B022809D828688001F7D507
:100E70001BE000BFFFF77EFA001B022802D9032007
:100E8000BDE8F88F28688001F4D40EE00128F7D07F
:100E90006868226A00F48031914204D1616A00F4EA
:100EA0007010884201D00120EAE70020E8E7000046
:100EB0000010024000004242800442420C00002028
:100EC0000070004010B5401EB0F1807F01D30120BA
:100ED00010BD4FF0E02460610F21601700F016FB99
:100EE0000020A06107202061002010BDFEE70168FE
:100EF0004A69D24352050FD46FF480624A610021DF
:100F000040F8301F202242738173026942F00402CC
:100F10000261017301207047002070472DE9F84FEE
:100F20000446C06A1E4693460D4621680A6842F48C
:100F300080620A60082807D0012805D010F5803F9C
:100F400002D0206B112804D12068016841F480711F
:100F500001604FF001195B46002249462046009689
:100F600000F0C6F84FF4007840B120680068C00572
:100F700001D5C4F840800320BDE8F88F2069DFF870
:100F800084A0B0F5804F0FD00620216800EAD51765
:100F900047F0F000086133465A460AF10601204640
:100FA00000F0DAF858BB03E0E8B240F001001CE0C2
:100FB0002168E8B2086133465A465146204600F09F
:100FC000CBF8E0B92068416981690091016841F47A
:100FD000807101605B46002249462046009600F081
:100FE00087F80028C1D147F0F10021680861334635
:100FF0005A465146204600F0AFF80028BCD00120E8
:10100000BAE7000002000100F8B50446C06A1E46B7
:101010000D461746082807D0012805D010F5803F57
:1010200002D0206B122804D12068016841F480713D
:101030000160134600224FF001112046009600F097
:1010400057F840B120680068C00502D54FF4007021
:1010500020640320F8BD2069B0F5804F0ED0062033
:10106000216800EAD51040F0F000086133463A46A6
:101070000B49204600F070F878B902E005F0FE0058
:1010800000E0E8B221680861054933463A46891F05
:10109000204600F061F80028DCD00120F8BD0000F7
:1010A0000800010070B516460D4604460DE02046C6
:1010B000FFF71DFF08B1012070BD681C05D0FFF7C8
:1010C00059F9801BA84207D835B120684069C04350
:1010D0004007ECD4002070BD002044F8300F2021E0
:1010E0006173A073216941F0200121612073E2E75F
:1010F0002DE9F0471E4690460D460446C1F30747CA
:10110000DDF8209008E0701C06D0FFF733F9A0EB63
:101110000900B0420FD876B12068012F18D080693D
:1011200025EA00000004000C14D000214145EAD05B
:101130000020BDE8F087002044F8300F20216173C3
:10114000A073216941F02001216120730120F0E7A3
:101150004069E5E70121E9E72DE9F0479A46914624
:101160000E46044600254FF02008C1F3074725E04E
:1011700020684069C043400514D42068016841F4E8
:101180000071016021686FF480604861256384F814
:101190003D8084F83E50206C40F00400206484F8C8
:1011A0003C501FE0B9F1FF3F08D0FFF7E3F8A0EB98
:1011B0000A0149450CD8B9F1000F09D02068012F68
:1011C00013D0806926EA00000004000C0BD0CFE7A2
:1011D00044F8305F84F80D80A573206940F020004A
:1011E000206125730120BDE8F0874069EAE72DE919
:1011F000F041002590460E460446202717E040693E
:10120000C043C0060CD454F8301B6FF01000486186
:1012100044F810596777A577206A2062257717E090
:10122000FFF7A8F8A0EB0800B04208D83EB120684C
:101230004169C9434906E2D40020BDE8F08144F881
:10124000305F6773A573206940F02000206125732B
:101250000120F2E770B516460D4604460DE0204623
:10126000FFF745FE08B1012070BD681C05D0FFF7EF
:1012700081F8801BA84207D835B120684069C04377
:101280000006ECD4002070BD002044F8300F20216F
:101290006173A073216941F0200121612073E2E7AD
:1012A00010B5084C012204212046FFF75DF801200B
:1012B000FEF768FF20460022BDE810400421FFF73A
:1012C00053B800000008014010B51420FEF75AFF83
:1012D000032000F02BF80520FEF754FF032000F058
:1012E00025F80120FEF74EFF032000F01FF8022032
:1012F00000F01CF8282000F03BF80C2000F038F833
:10130000062000F035F8012000F032F8BDE810406A
:101310000520FEF737BF10B5044602E0641C00F05C
:1013200039F820780028F9D110BD000070B50F4DB4
:10133000044600F0010208212846FFF715F8C4F31F
:10134000400210212846FFF70FF8C4F38002202145
:101350002846FFF709F8C4F3C00240212846FFF7EA
:1013600003F8BDE87040FFF79BBF00000008014094
:1013700010B50446002201210548FEF7F5FF2009BB
:10138000FFF7D4FF04F00F00BDE81040FFF7CEBF19
:101390000008014010B50446012211460548FEF739
:1013A000E3FF2009FFF7C2FF04F00F00BDE8104083
:1013B000FFF7BCBF0008014020B1C0200844C0B204
:1013C000FFF7D6BF8020F9E730B585B00024184874
:1013D0000094019402940394816941F02001816199
:1013E000816901F020010491816941F0040181616A
:1013F000816901F004010491816941F00801816172
:1014000080690C4D00F00800049000227F212846DE
:10141000FEF7AAFF7F2000900120CDE90104022001
:10142000039069462846FEF7BFFE05B030BD0000B8
:101430000010024000080140FEE7704770470000BE
:101440007FB5044600208DF80C006425012303AA13
:10145000D02117480095FFF779F9072301AAD02179
:1014600013480095FFF750F89DF80400FEF77EFE44
:1014700020709DF80500FEF779FE60709DF806006B
:10148000FEF774FEA0709DF80700FEF76FFEE07097
:101490009DF80800FEF76AFE20719DF80900FEF72E
:1014A00065FE60719DF80A00FEF760FEA0717FBDC9
:1014B000100000207047FFF70FBA30B58FB0282119
:1014C0006846FEF736FE14210AA8FEF732FE012117
:1014D0000804CDE900100024029402250491CDE90E
:1014E00007504FF4E01009906846FFF75BFB0F20B0
:1014F000CDE90A056802CDE90C4002210AA80E9444
:10150000FFF774FA0FB030BD7047FEE70907090E08
:10151000002804DB00F1E02080F80014704700F0A0
:101520000F0000F1E02080F8141D704702E008C8A9
:10153000121F08C1002AFAD170477047002001E04D
:1015400001C1121F002AFBD1704700001CB5FFF734
:10155000CBF9FFF7B9FEFFF7B0FFFFF735FF1248F1
:1015600010494FF4804201601049416000218160C0
:10157000C0E9031241618161C1610162FEF700FFB0
:101580006846FFF75DFF00210846FFF715FF08A03A
:10159000FFF7C1FE00210120FFF70EFF08A0FFF7B3
:1015A000BAFEEDE70054004010000020A0860100C4
:1015B00048656C6C6F2C20576F726C6421000000C2
:1015C00053544D33322048414C00000000000000CD
:1015D00000000000010203040607080900000000E3
:1015E000010203040416000800000020100000009F
:1015F0002C150008141600081000002058040000E4
:101600003C15000801000000100000000000000070
:041610000024F400BE
:04000005080000ED02
:00000001FF
